{
  "contractName": "Retailer",
  "abi": [
    {
      "constant": true,
      "inputs": [
        {
          "name": "",
          "type": "uint256"
        }
      ],
      "name": "retailerAccounts",
      "outputs": [
        {
          "name": "",
          "type": "address"
        }
      ],
      "payable": false,
      "stateMutability": "view",
      "type": "function",
      "signature": "0x0b11b8aa"
    },
    {
      "constant": true,
      "inputs": [
        {
          "name": "",
          "type": "address"
        }
      ],
      "name": "retailers",
      "outputs": [
        {
          "name": "retailerTinNo",
          "type": "string"
        },
        {
          "name": "retailerName",
          "type": "string"
        },
        {
          "name": "retailerCountry",
          "type": "string"
        },
        {
          "name": "retailerLocation",
          "type": "string"
        },
        {
          "name": "distributorDetails",
          "type": "string"
        },
        {
          "name": "manufacturerDetails",
          "type": "string"
        },
        {
          "name": "productDetails",
          "type": "string"
        }
      ],
      "payable": false,
      "stateMutability": "view",
      "type": "function",
      "signature": "0x9a268f35"
    },
    {
      "constant": false,
      "inputs": [
        {
          "name": "_address",
          "type": "address"
        },
        {
          "name": "_retailerTinNo",
          "type": "string"
        },
        {
          "name": "_retailerName",
          "type": "string"
        },
        {
          "name": "_retailerCountry",
          "type": "string"
        },
        {
          "name": "_retailerLocation",
          "type": "string"
        },
        {
          "name": "_distributorDetails",
          "type": "string"
        },
        {
          "name": "_manufacturerDetails",
          "type": "string"
        },
        {
          "name": "_productDetails",
          "type": "string"
        }
      ],
      "name": "setRetailerDetails",
      "outputs": [],
      "payable": false,
      "stateMutability": "nonpayable",
      "type": "function",
      "signature": "0x6cc36a8f"
    },
    {
      "constant": true,
      "inputs": [],
      "name": "countRetailer",
      "outputs": [
        {
          "name": "",
          "type": "uint256"
        }
      ],
      "payable": false,
      "stateMutability": "view",
      "type": "function",
      "signature": "0xcc18d401"
    },
    {
      "constant": true,
      "inputs": [],
      "name": "getRetailer",
      "outputs": [
        {
          "name": "",
          "type": "address[]"
        }
      ],
      "payable": false,
      "stateMutability": "view",
      "type": "function",
      "signature": "0xf80d1ff0"
    },
    {
      "constant": true,
      "inputs": [],
      "name": "storeTransactionHashForRetailer",
      "outputs": [
        {
          "name": "",
          "type": "address"
        }
      ],
      "payable": false,
      "stateMutability": "view",
      "type": "function",
      "signature": "0xd710568f"
    }
  ],
  "bytecode": "0x608060405234801561001057600080fd5b50611128806100206000396000f3fe608060405260043610610078576000357c0100000000000000000000000000000000000000000000000000000000900463ffffffff1680630b11b8aa1461007d5780636cc36a8f146100f85780639a268f351461056b578063cc18d401146108bd578063d710568f146108e8578063f80d1ff01461093f575b600080fd5b34801561008957600080fd5b506100b6600480360360208110156100a057600080fd5b81019080803590602001909291905050506109ab565b604051808273ffffffffffffffffffffffffffffffffffffffff1673ffffffffffffffffffffffffffffffffffffffff16815260200191505060405180910390f35b34801561010457600080fd5b50610569600480360361010081101561011c57600080fd5b81019080803573ffffffffffffffffffffffffffffffffffffffff1690602001909291908035906020019064010000000081111561015957600080fd5b82018360208201111561016b57600080fd5b8035906020019184600183028401116401000000008311171561018d57600080fd5b91908080601f016020809104026020016040519081016040528093929190818152602001838380828437600081840152601f19601f820116905080830192505050505050509192919290803590602001906401000000008111156101f057600080fd5b82018360208201111561020257600080fd5b8035906020019184600183028401116401000000008311171561022457600080fd5b91908080601f016020809104026020016040519081016040528093929190818152602001838380828437600081840152601f19601f8201169050808301925050505050505091929192908035906020019064010000000081111561028757600080fd5b82018360208201111561029957600080fd5b803590602001918460018302840111640100000000831117156102bb57600080fd5b91908080601f016020809104026020016040519081016040528093929190818152602001838380828437600081840152601f19601f8201169050808301925050505050505091929192908035906020019064010000000081111561031e57600080fd5b82018360208201111561033057600080fd5b8035906020019184600183028401116401000000008311171561035257600080fd5b91908080601f016020809104026020016040519081016040528093929190818152602001838380828437600081840152601f19601f820116905080830192505050505050509192919290803590602001906401000000008111156103b557600080fd5b8201836020820111156103c757600080fd5b803590602001918460018302840111640100000000831117156103e957600080fd5b91908080601f016020809104026020016040519081016040528093929190818152602001838380828437600081840152601f19601f8201169050808301925050505050505091929192908035906020019064010000000081111561044c57600080fd5b82018360208201111561045e57600080fd5b8035906020019184600183028401116401000000008311171561048057600080fd5b91908080601f016020809104026020016040519081016040528093929190818152602001838380828437600081840152601f19601f820116905080830192505050505050509192919290803590602001906401000000008111156104e357600080fd5b8201836020820111156104f557600080fd5b8035906020019184600183028401116401000000008311171561051757600080fd5b91908080601f016020809104026020016040519081016040528093929190818152602001838380828437600081840152601f19601f8201169050808301925050505050505091929192905050506109e9565b005b34801561057757600080fd5b506105ba6004803603602081101561058e57600080fd5b81019080803573ffffffffffffffffffffffffffffffffffffffff169060200190929190505050610b4d565b604051808060200180602001806020018060200180602001806020018060200188810388528f818151815260200191508051906020019080838360005b838110156106125780820151818401526020810190506105f7565b50505050905090810190601f16801561063f5780820380516001836020036101000a031916815260200191505b5088810387528e818151815260200191508051906020019080838360005b8381101561067857808201518184015260208101905061065d565b50505050905090810190601f1680156106a55780820380516001836020036101000a031916815260200191505b5088810386528d818151815260200191508051906020019080838360005b838110156106de5780820151818401526020810190506106c3565b50505050905090810190601f16801561070b5780820380516001836020036101000a031916815260200191505b5088810385528c818151815260200191508051906020019080838360005b83811015610744578082015181840152602081019050610729565b50505050905090810190601f1680156107715780820380516001836020036101000a031916815260200191505b5088810384528b818151815260200191508051906020019080838360005b838110156107aa57808201518184015260208101905061078f565b50505050905090810190601f1680156107d75780820380516001836020036101000a031916815260200191505b5088810383528a818151815260200191508051906020019080838360005b838110156108105780820151818401526020810190506107f5565b50505050905090810190601f16801561083d5780820380516001836020036101000a031916815260200191505b50888103825289818151815260200191508051906020019080838360005b8381101561087657808201518184015260208101905061085b565b50505050905090810190601f1680156108a35780820380516001836020036101000a031916815260200191505b509e50505050505050505050505050505060405180910390f35b3480156108c957600080fd5b506108d2610fb7565b6040518082815260200191505060405180910390f35b3480156108f457600080fd5b506108fd610fc4565b604051808273ffffffffffffffffffffffffffffffffffffffff1673ffffffffffffffffffffffffffffffffffffffff16815260200191505060405180910390f35b34801561094b57600080fd5b50610954610fc9565b6040518080602001828103825283818151815260200191508051906020019060200280838360005b8381101561099757808201518184015260208101905061097c565b505050509050019250505060405180910390f35b6001818154811015156109ba57fe5b906000526020600020016000915054906101000a900473ffffffffffffffffffffffffffffffffffffffff1681565b60008060008a73ffffffffffffffffffffffffffffffffffffffff1673ffffffffffffffffffffffffffffffffffffffff168152602001908152602001600020905087816000019080519060200190610a43929190611057565b5086816001019080519060200190610a5c929190611057565b5085816002019080519060200190610a75929190611057565b5084816003019080519060200190610a8e929190611057565b5083816004019080519060200190610aa7929190611057565b5082816005019080519060200190610ac0929190611057565b5081816006019080519060200190610ad9929190611057565b506001808a90806001815401808255809150509060018203906000526020600020016000909192909190916101000a81548173ffffffffffffffffffffffffffffffffffffffff021916908373ffffffffffffffffffffffffffffffffffffffff1602179055505050505050505050505050565b6000602052806000526040600020600091509050806000018054600181600116156101000203166002900480601f016020809104026020016040519081016040528092919081815260200182805460018160011615610100020316600290048015610bf95780601f10610bce57610100808354040283529160200191610bf9565b820191906000526020600020905b815481529060010190602001808311610bdc57829003601f168201915b505050505090806001018054600181600116156101000203166002900480601f016020809104026020016040519081016040528092919081815260200182805460018160011615610100020316600290048015610c975780601f10610c6c57610100808354040283529160200191610c97565b820191906000526020600020905b815481529060010190602001808311610c7a57829003601f168201915b505050505090806002018054600181600116156101000203166002900480601f016020809104026020016040519081016040528092919081815260200182805460018160011615610100020316600290048015610d355780601f10610d0a57610100808354040283529160200191610d35565b820191906000526020600020905b815481529060010190602001808311610d1857829003601f168201915b505050505090806003018054600181600116156101000203166002900480601f016020809104026020016040519081016040528092919081815260200182805460018160011615610100020316600290048015610dd35780601f10610da857610100808354040283529160200191610dd3565b820191906000526020600020905b815481529060010190602001808311610db657829003601f168201915b505050505090806004018054600181600116156101000203166002900480601f016020809104026020016040519081016040528092919081815260200182805460018160011615610100020316600290048015610e715780601f10610e4657610100808354040283529160200191610e71565b820191906000526020600020905b815481529060010190602001808311610e5457829003601f168201915b505050505090806005018054600181600116156101000203166002900480601f016020809104026020016040519081016040528092919081815260200182805460018160011615610100020316600290048015610f0f5780601f10610ee457610100808354040283529160200191610f0f565b820191906000526020600020905b815481529060010190602001808311610ef257829003601f168201915b505050505090806006018054600181600116156101000203166002900480601f016020809104026020016040519081016040528092919081815260200182805460018160011615610100020316600290048015610fad5780601f10610f8257610100808354040283529160200191610fad565b820191906000526020600020905b815481529060010190602001808311610f9057829003601f168201915b5050505050905087565b6000600180549050905090565b600090565b6060600180548060200260200160405190810160405280929190818152602001828054801561104d57602002820191906000526020600020905b8160009054906101000a900473ffffffffffffffffffffffffffffffffffffffff1673ffffffffffffffffffffffffffffffffffffffff1681526020019060010190808311611003575b5050505050905090565b828054600181600116156101000203166002900490600052602060002090601f016020900481019282601f1061109857805160ff19168380011785556110c6565b828001600101855582156110c6579182015b828111156110c55782518255916020019190600101906110aa565b5b5090506110d391906110d7565b5090565b6110f991905b808211156110f55760008160009055506001016110dd565b5090565b9056fea165627a7a72305820e5e1885e91899ceb7d7be3e00556e5148fe9801892b6a2bf7d1964b29e75d6fb0029",
  "source": "pragma solidity ^0.5.0;\n\ncontract Retailer {\n    //Model Retailer Details\n    struct RetailerDetails {\n        string retailerTinNo;\n        string retailerName;\n        string retailerCountry;\n        string retailerLocation;\n        string distributorDetails;\n        string manufacturerDetails;\n        string productDetails;\n    }\n    //store Distributor\n    //fetch Distributor\n    mapping(address => RetailerDetails) public retailers;\n\n    //store total no of products\n    address[] public retailerAccounts;\n\n    //set details of the product and producer\n    function setRetailerDetails (\n        address _address,\n        string memory _retailerTinNo, \n        string memory _retailerName,\n        string memory _retailerCountry,\n        string memory _retailerLocation,\n        string memory _distributorDetails,\n        string memory _manufacturerDetails,\n        string memory _productDetails) public {\n        RetailerDetails storage retailer = retailers[_address];\n\n        retailer.retailerTinNo = _retailerTinNo;\n        retailer.retailerName = _retailerName;\n        retailer.retailerCountry = _retailerCountry;\n        retailer.retailerLocation = _retailerLocation;\n        retailer.distributorDetails = _distributorDetails;\n        retailer.manufacturerDetails = _manufacturerDetails;\n        retailer.productDetails = _productDetails;\n\n        retailerAccounts.push(_address)-1;\n    }\n    function countRetailer() public view  returns (uint) {\n        return retailerAccounts.length;\n    }\n\n    function getRetailer() public view  returns (address[] memory) {\n        return retailerAccounts;\n    }\n\n    function storeTransactionHashForRetailer() public view  returns (address) {\n    }\n}",
  "sourcePath": "D:/project-updated-20190218T094855Z-001/project-updated/contracts/Retailer.sol",
  "compiler": {
    "name": "solc",
    "version": "0.5.0+commit.1d4f565a.Emscripten.clang"
  },
  "schemaVersion": "3.0.1",
  "updatedAt": "2019-03-06T13:24:03.997Z",
  "devdoc": {
    "methods": {}
  },
  "userdoc": {
    "methods": {}
  }
}