{
  "contractName": "Supplier",
  "abi": [
    {
      "constant": true,
      "inputs": [
        {
          "name": "",
          "type": "address"
        }
      ],
      "name": "suppliers",
      "outputs": [
        {
          "name": "tinNo",
          "type": "string"
        },
        {
          "name": "supplierName",
          "type": "string"
        },
        {
          "name": "supplierCountry",
          "type": "string"
        },
        {
          "name": "location",
          "type": "string"
        },
        {
          "name": "manufacturerName",
          "type": "string"
        },
        {
          "name": "productName",
          "type": "string"
        },
        {
          "name": "manufacturingCountry",
          "type": "string"
        }
      ],
      "payable": false,
      "stateMutability": "view",
      "type": "function",
      "signature": "0x16dc15fe"
    },
    {
      "constant": true,
      "inputs": [
        {
          "name": "",
          "type": "uint256"
        }
      ],
      "name": "supplierAccounts",
      "outputs": [
        {
          "name": "",
          "type": "address"
        }
      ],
      "payable": false,
      "stateMutability": "view",
      "type": "function",
      "signature": "0x71d9044a"
    },
    {
      "constant": false,
      "inputs": [
        {
          "name": "_address",
          "type": "address"
        },
        {
          "name": "_tinNo",
          "type": "string"
        },
        {
          "name": "_supplierName",
          "type": "string"
        },
        {
          "name": "_supplierCountry",
          "type": "string"
        },
        {
          "name": "_location",
          "type": "string"
        },
        {
          "name": "_manufacturerName",
          "type": "string"
        },
        {
          "name": "_productName",
          "type": "string"
        },
        {
          "name": "_manufacturingCountry",
          "type": "string"
        }
      ],
      "name": "setSupplierDetails",
      "outputs": [],
      "payable": false,
      "stateMutability": "nonpayable",
      "type": "function",
      "signature": "0xb9c8940e"
    },
    {
      "constant": true,
      "inputs": [],
      "name": "countSuppliers",
      "outputs": [
        {
          "name": "",
          "type": "uint256"
        }
      ],
      "payable": false,
      "stateMutability": "view",
      "type": "function",
      "signature": "0x172575e5"
    },
    {
      "constant": true,
      "inputs": [],
      "name": "getSuppliers",
      "outputs": [
        {
          "name": "",
          "type": "address[]"
        }
      ],
      "payable": false,
      "stateMutability": "view",
      "type": "function",
      "signature": "0x43516832"
    },
    {
      "constant": true,
      "inputs": [],
      "name": "storeTransactionHashForSupplier",
      "outputs": [
        {
          "name": "",
          "type": "address"
        }
      ],
      "payable": false,
      "stateMutability": "view",
      "type": "function",
      "signature": "0x70394dab"
    }
  ],
  "bytecode": "0x608060405234801561001057600080fd5b50611128806100206000396000f3fe608060405260043610610078576000357c0100000000000000000000000000000000000000000000000000000000900463ffffffff16806316dc15fe1461007d578063172575e5146103cf57806343516832146103fa57806370394dab1461046657806371d9044a146104bd578063b9c8940e14610538575b600080fd5b34801561008957600080fd5b506100cc600480360360208110156100a057600080fd5b81019080803573ffffffffffffffffffffffffffffffffffffffff1690602001909291905050506109ab565b604051808060200180602001806020018060200180602001806020018060200188810388528f818151815260200191508051906020019080838360005b83811015610124578082015181840152602081019050610109565b50505050905090810190601f1680156101515780820380516001836020036101000a031916815260200191505b5088810387528e818151815260200191508051906020019080838360005b8381101561018a57808201518184015260208101905061016f565b50505050905090810190601f1680156101b75780820380516001836020036101000a031916815260200191505b5088810386528d818151815260200191508051906020019080838360005b838110156101f05780820151818401526020810190506101d5565b50505050905090810190601f16801561021d5780820380516001836020036101000a031916815260200191505b5088810385528c818151815260200191508051906020019080838360005b8381101561025657808201518184015260208101905061023b565b50505050905090810190601f1680156102835780820380516001836020036101000a031916815260200191505b5088810384528b818151815260200191508051906020019080838360005b838110156102bc5780820151818401526020810190506102a1565b50505050905090810190601f1680156102e95780820380516001836020036101000a031916815260200191505b5088810383528a818151815260200191508051906020019080838360005b83811015610322578082015181840152602081019050610307565b50505050905090810190601f16801561034f5780820380516001836020036101000a031916815260200191505b50888103825289818151815260200191508051906020019080838360005b8381101561038857808201518184015260208101905061036d565b50505050905090810190601f1680156103b55780820380516001836020036101000a031916815260200191505b509e50505050505050505050505050505060405180910390f35b3480156103db57600080fd5b506103e4610e15565b6040518082815260200191505060405180910390f35b34801561040657600080fd5b5061040f610e22565b6040518080602001828103825283818151815260200191508051906020019060200280838360005b83811015610452578082015181840152602081019050610437565b505050509050019250505060405180910390f35b34801561047257600080fd5b5061047b610eb0565b604051808273ffffffffffffffffffffffffffffffffffffffff1673ffffffffffffffffffffffffffffffffffffffff16815260200191505060405180910390f35b3480156104c957600080fd5b506104f6600480360360208110156104e057600080fd5b8101908080359060200190929190505050610eb5565b604051808273ffffffffffffffffffffffffffffffffffffffff1673ffffffffffffffffffffffffffffffffffffffff16815260200191505060405180910390f35b34801561054457600080fd5b506109a9600480360361010081101561055c57600080fd5b81019080803573ffffffffffffffffffffffffffffffffffffffff1690602001909291908035906020019064010000000081111561059957600080fd5b8201836020820111156105ab57600080fd5b803590602001918460018302840111640100000000831117156105cd57600080fd5b91908080601f016020809104026020016040519081016040528093929190818152602001838380828437600081840152601f19601f8201169050808301925050505050505091929192908035906020019064010000000081111561063057600080fd5b82018360208201111561064257600080fd5b8035906020019184600183028401116401000000008311171561066457600080fd5b91908080601f016020809104026020016040519081016040528093929190818152602001838380828437600081840152601f19601f820116905080830192505050505050509192919290803590602001906401000000008111156106c757600080fd5b8201836020820111156106d957600080fd5b803590602001918460018302840111640100000000831117156106fb57600080fd5b91908080601f016020809104026020016040519081016040528093929190818152602001838380828437600081840152601f19601f8201169050808301925050505050505091929192908035906020019064010000000081111561075e57600080fd5b82018360208201111561077057600080fd5b8035906020019184600183028401116401000000008311171561079257600080fd5b91908080601f016020809104026020016040519081016040528093929190818152602001838380828437600081840152601f19601f820116905080830192505050505050509192919290803590602001906401000000008111156107f557600080fd5b82018360208201111561080757600080fd5b8035906020019184600183028401116401000000008311171561082957600080fd5b91908080601f016020809104026020016040519081016040528093929190818152602001838380828437600081840152601f19601f8201169050808301925050505050505091929192908035906020019064010000000081111561088c57600080fd5b82018360208201111561089e57600080fd5b803590602001918460018302840111640100000000831117156108c057600080fd5b91908080601f016020809104026020016040519081016040528093929190818152602001838380828437600081840152601f19601f8201169050808301925050505050505091929192908035906020019064010000000081111561092357600080fd5b82018360208201111561093557600080fd5b8035906020019184600183028401116401000000008311171561095757600080fd5b91908080601f016020809104026020016040519081016040528093929190818152602001838380828437600081840152601f19601f820116905080830192505050505050509192919290505050610ef3565b005b6000602052806000526040600020600091509050806000018054600181600116156101000203166002900480601f016020809104026020016040519081016040528092919081815260200182805460018160011615610100020316600290048015610a575780601f10610a2c57610100808354040283529160200191610a57565b820191906000526020600020905b815481529060010190602001808311610a3a57829003601f168201915b505050505090806001018054600181600116156101000203166002900480601f016020809104026020016040519081016040528092919081815260200182805460018160011615610100020316600290048015610af55780601f10610aca57610100808354040283529160200191610af5565b820191906000526020600020905b815481529060010190602001808311610ad857829003601f168201915b505050505090806002018054600181600116156101000203166002900480601f016020809104026020016040519081016040528092919081815260200182805460018160011615610100020316600290048015610b935780601f10610b6857610100808354040283529160200191610b93565b820191906000526020600020905b815481529060010190602001808311610b7657829003601f168201915b505050505090806003018054600181600116156101000203166002900480601f016020809104026020016040519081016040528092919081815260200182805460018160011615610100020316600290048015610c315780601f10610c0657610100808354040283529160200191610c31565b820191906000526020600020905b815481529060010190602001808311610c1457829003601f168201915b505050505090806004018054600181600116156101000203166002900480601f016020809104026020016040519081016040528092919081815260200182805460018160011615610100020316600290048015610ccf5780601f10610ca457610100808354040283529160200191610ccf565b820191906000526020600020905b815481529060010190602001808311610cb257829003601f168201915b505050505090806005018054600181600116156101000203166002900480601f016020809104026020016040519081016040528092919081815260200182805460018160011615610100020316600290048015610d6d5780601f10610d4257610100808354040283529160200191610d6d565b820191906000526020600020905b815481529060010190602001808311610d5057829003601f168201915b505050505090806006018054600181600116156101000203166002900480601f016020809104026020016040519081016040528092919081815260200182805460018160011615610100020316600290048015610e0b5780601f10610de057610100808354040283529160200191610e0b565b820191906000526020600020905b815481529060010190602001808311610dee57829003601f168201915b5050505050905087565b6000600180549050905090565b60606001805480602002602001604051908101604052809291908181526020018280548015610ea657602002820191906000526020600020905b8160009054906101000a900473ffffffffffffffffffffffffffffffffffffffff1673ffffffffffffffffffffffffffffffffffffffff1681526020019060010190808311610e5c575b5050505050905090565b600090565b600181815481101515610ec457fe5b906000526020600020016000915054906101000a900473ffffffffffffffffffffffffffffffffffffffff1681565b60008060008a73ffffffffffffffffffffffffffffffffffffffff1673ffffffffffffffffffffffffffffffffffffffff168152602001908152602001600020905087816000019080519060200190610f4d929190611057565b5086816001019080519060200190610f66929190611057565b5085816002019080519060200190610f7f929190611057565b5084816003019080519060200190610f98929190611057565b5083816004019080519060200190610fb1929190611057565b5082816005019080519060200190610fca929190611057565b5081816006019080519060200190610fe3929190611057565b506001808a90806001815401808255809150509060018203906000526020600020016000909192909190916101000a81548173ffffffffffffffffffffffffffffffffffffffff021916908373ffffffffffffffffffffffffffffffffffffffff1602179055505050505050505050505050565b828054600181600116156101000203166002900490600052602060002090601f016020900481019282601f1061109857805160ff19168380011785556110c6565b828001600101855582156110c6579182015b828111156110c55782518255916020019190600101906110aa565b5b5090506110d391906110d7565b5090565b6110f991905b808211156110f55760008160009055506001016110dd565b5090565b9056fea165627a7a7230582000506cec9923d103f33ea23c8fd04d7bda533b4a152bfcfc4b19f6359e47979e0029",
  "source": "pragma solidity ^0.5.0;\n\ncontract Supplier {\n    //Model Supplier Details\n    struct SupplierDetails {\n        string tinNo;\n        string supplierName;\n        string supplierCountry;\n        string location;\n        string manufacturerName;\n        string productName;\n        string manufacturingCountry;\n    }\n    //store supplier\n    //fetch supplier\n    mapping(address => SupplierDetails) public suppliers;\n\n    //store total no of products\n    address[] public supplierAccounts;\n\n    //set details of the product and producer\n    function setSupplierDetails (\n        address _address,\n        string memory _tinNo, \n        string memory _supplierName, \n        string memory _supplierCountry,\n        string memory _location,\n        string memory _manufacturerName,\n        string memory _productName,\n        string memory _manufacturingCountry) public {\n        SupplierDetails storage supplier = suppliers[_address];\n\n        supplier.tinNo = _tinNo;\n        supplier.supplierName = _supplierName;\n        supplier.supplierCountry = _supplierCountry;\n        supplier.location = _location;\n        supplier.manufacturerName = _manufacturerName;\n        supplier.productName = _productName;\n        supplier.manufacturingCountry = _manufacturingCountry;\n\n        supplierAccounts.push(_address)-1;\n    }\n    function countSuppliers() public view  returns (uint) {\n        return supplierAccounts.length;\n    }\n\n    function getSuppliers() public view  returns (address[] memory) {\n        return supplierAccounts;\n    }\n\n    function storeTransactionHashForSupplier() public view  returns (address) {\n    }\n}",
  "sourcePath": "/Users/nishantgaurav/Desktop/BLOCKCHAIN/Project/contracts/Supplier.sol",
  "compiler": {
    "name": "solc",
    "version": "0.5.0+commit.1d4f565a.Emscripten.clang"
  },
  "schemaVersion": "3.0.0",
  "updatedAt": "2019-02-15T10:35:56.117Z",
  "devdoc": {
    "methods": {}
  },
  "userdoc": {
    "methods": {}
  }
}